:020000040800F2
:1000000000500020111500081513000821130008E6
:10001000271300082D130008331300080000000008
:100020000000000000000000000000002171000836
:100030003913000800000000017300084513000890
:1000400059150008591500085915000859150008D8
:1000500059150008591500085915000859150008C8
:1000600059150008591500085915000859150008B8
:1000700059150008591500085915000859150008A8
:100080005915000859150008591500085915000898
:100090005915000859150008591500085915000888
:1000A0005915000859150008591500085915000878
:1000B0005915000859150008591500085915000868
:1000C0005915000859150008591500085915000858
:1000D0005915000859150008591500085915000848
:1000E00059150008591500085915000800000000AE
:1000F0000000000000000000000000000000000000
:0C01000000000000000000005FF808F1A3
:1001100010B5054C237833B9044B13B10448AFF341
:1001200000800123237010BD0002002000000000A9
:10013000C4C2000808B5034B1BB103490348AFF321
:10014000008008BD0000000004020020C4C20008B6
:10015000034613F8012B002AFBD1181A0138704707
:1001600081F0004102E000BF83F0004330B54FEA68
:1001700041044FEA430594EA050F08BF90EA020FD5
:100180001FBF54EA000C55EA020C7FEA645C7FEA68
:10019000655C00F0E2804FEA5454D4EB5555B8BF8B
:1001A0006D420CDD2C4480EA020281EA030382EAFC
:1001B000000083EA010180EA020281EA0303362D8E
:1001C00088BF30BD11F0004F4FEA01314FF4801C61
:1001D0004CEA113102D0404261EB410113F0004F73
:1001E0004FEA03334CEA133302D0524263EB43032A
:1001F00094EA050F00F0A780A4F10104D5F1200EC8
:100200000DDB02FA0EFC22FA05F2801841F1000122
:1002100003FA0EF2801843FA05F359410EE0A5F1F6
:1002200020050EF1200E012A03FA0EFC28BF4CF027
:10023000020C43FA05F3C01851EBE37101F00045DD
:1002400007D54FF0000EDCF1000C7EEB00006EEBEA
:100250000101B1F5801F1BD3B1F5001F0CD3490874
:100260005FEA30004FEA3C0C04F101044FEA4452CB
:1002700012F5800F80F09A80BCF1004F08BF5FEA52
:10028000500C50F1000041EB045141EA050130BD32
:100290005FEA4C0C404141EB0101013C28BFB1F544
:1002A000801FE9D291F0000F04BF01460020B1FA8F
:1002B00081F308BF2033A3F10B03B3F120020CDA62
:1002C0000C3208DD02F1140CC2F10C0201FA0CF040
:1002D00021FA02F10CE002F11402D8BFC2F1200CA5
:1002E00001FA02F120FA0CFCDCBF41EA0C0190405B
:1002F000E41AA2BF01EB0451294330BD6FEA0404A4
:100300001F3C1CDA0C340EDC04F11404C4F120028E
:1003100020FA04F001FA02F340EA030021FA04F3A0
:1003200045EA030130BDC4F10C04C4F1200220FAF7
:1003300002F001FA04F340EA0300294630BD21FA35
:1003400004F0294630BD94F0000F83F4801306BFFB
:1003500081F480110134013D4EE77FEA645C18BFEF
:100360007FEA655C29D094EA050F08BF90EA020F86
:1003700005D054EA000C04BF1946104630BD91EA7E
:10038000030F1EBF0021002030BD5FEA545C05D181
:100390004000494128BF41F0004130BD14F58004C0
:1003A0003CBF01F5801130BD01F0004545F0FE4134
:1003B00041F470014FF0000030BD7FEA645C1ABF69
:1003C000194610467FEA655C1CBF0B46024650EAA0
:1003D000013406BF52EA033591EA030F41F40021CC
:1003E00030BD00BF90F0000F04BF0021704730B552
:1003F0004FF4806404F132044FF000054FF0000127
:1004000050E700BF90F0000F04BF0021704730B5E7
:100410004FF4806404F1320410F0004548BF4042BC
:100420004FF000013EE700BF42004FEAE2014FEA11
:1004300031014FEA02701FBF12F07F4393F07F4FEC
:1004400081F06051704732F07F4208BF704793F0EF
:100450007F4F04BF41F40021704730B54FF4607402
:1004600001F0004521F000411CE700BF50EA010205
:1004700008BF704730B54FF000050AE050EA0102AE
:1004800008BF704730B511F0004502D5404261EB1E
:1004900041014FF4806404F132045FEA915C3FF45F
:1004A000D8AE4FF003025FEADC0C18BF03325FEAFC
:1004B000DC0C18BF033202EBDC02C2F1200300FAAD
:1004C00003FC20FA02F001FA03FE40EA0E0021FAD2
:1004D00002F11444BDE600BF70B54FF0FF0C4CF4C0
:1004E000E06C1CEA11541DBF1CEA135594EA0C0F72
:1004F00095EA0C0F00F0DEF82C4481EA030621EAAD
:100500004C5123EA4C5350EA013518BF52EA0335E7
:1005100041F4801143F4801338D0A0FB02CE4FF099
:100520000005E1FB02E506F00042E0FB03E54FF0C9
:100530000006E1FB03569CF0000F18BF4EF0010EC1
:10054000A4F1FF04B6F5007F64F5407404D25FEABD
:100550004E0E6D4146EB060642EAC62141EA555170
:100560004FEAC52040EA5E504FEACE2EB4F1FD0CB2
:1005700088BFBCF5E06F1ED8BEF1004F08BF5FEA30
:10058000500E50F1000041EB045170BD06F00046E2
:1005900046EA010140EA020081EA0301B4EB5C048F
:1005A000C2BFD4EB0C0541EA045170BD41F4801187
:1005B0004FF0000E013C00F3AB8014F1360FDEBFAC
:1005C000002001F0004170BDC4F10004203C35DA88
:1005D0000C341BDC04F11404C4F1200500FA05F30B
:1005E00020FA04F001FA05F240EA020001F00042AC
:1005F00021F0004110EBD37021FA04F642EB060122
:100600005EEA430E08BF20EAD37070BDC4F10C044B
:10061000C4F1200500FA04F320FA05F001FA04F20F
:1006200040EA020001F0004110EBD37041F10001FB
:100630005EEA430E08BF20EAD37070BDC4F1200506
:1006400000FA05F24EEA020E20FA04F301FA05F26E
:1006500043EA020321FA04F001F0004121FA04F216
:1006600020EA020000EBD3705EEA430E08BF20EAE6
:10067000D37070BD94F0000F0FD101F00046400020
:1006800041EB010111F4801F08BF013CF7D041EAA2
:10069000060195F0000F18BF704703F000465200A6
:1006A00043EB030313F4801F08BF013DF7D043EA77
:1006B0000603704794EA0C0F0CEA135518BF95EA2D
:1006C0000C0F0CD050EA410618BF52EA4306D1D1B4
:1006D00081EA030101F000414FF0000070BD50EAD3
:1006E000410606BF1046194652EA430619D094EA5D
:1006F0000C0F02D150EA013613D195EA0C0F05D147
:1007000052EA03361CBF104619460AD181EA03019A
:1007100001F0004141F0FE4141F470014FF0000052
:1007200070BD41F0FE4141F4780170BD70B54FF0ED
:10073000FF0C4CF4E06C1CEA11541DBF1CEA13556D
:1007400094EA0C0F95EA0C0F00F0A7F8A4EB05044F
:1007500081EA030E52EA03354FEA013100F0888046
:100760004FEA03334FF0805545EA131343EA12630F
:100770004FEA022245EA111545EA10654FEA0026C4
:100780000EF000419D4208BF964244F1FD0404F57D
:10079000407402D25B084FEA3202B61A65EB0305D9
:1007A0005B084FEA32024FF480104FF4002CB6EB96
:1007B000020E75EB030E22BFB61A754640EA0C0016
:1007C0005B084FEA3202B6EB020E75EB030E22BF56
:1007D000B61A754640EA5C005B084FEA3202B6EB97
:1007E000020E75EB030E22BFB61A754640EA9C0056
:1007F0005B084FEA3202B6EB020E75EB030E22BF26
:10080000B61A754640EADC0055EA060E18D04FEAE3
:10081000051545EA16754FEA06164FEAC30343EA83
:1008200052734FEAC2025FEA1C1CC0D111F4801F50
:100830000BD141EA00014FF000004FF0004CB6E749
:1008400011F4801F04BF01430020B4F1FD0C88BFE8
:10085000BCF5E06F3FF6AFAEB5EB030C04BFB6EBF3
:10086000020C5FEA500C50F1000041EB045170BDE6
:100870000EF0004E4EEA113114EB5C04C2BFD4EB13
:100880000C0541EA045170BD41F480114FF0000E97
:10089000013C90E645EA060E8DE60CEA135594EA13
:1008A0000C0F08BF95EA0C0F3FF43BAF94EA0C0F16
:1008B0000AD150EA01347FF434AF95EA0C0F7FF48B
:1008C00025AF104619462CE795EA0C0F06D152EADF
:1008D00003353FF4FDAE1046194622E750EA4106C3
:1008E00018BF52EA43067FF4C5AE50EA41047FF4D4
:1008F0000DAF52EA43057FF4EBAE12E74FF0FF3C39
:1009000006E000BF4FF0010C02E000BF4FF0010C09
:100910004DF804CD4FEA410C7FEA6C5C4FEA430C82
:1009200018BF7FEA6C5C1BD001B050EA410C0CBFD1
:1009300052EA430C91EA030F02BF90EA020F002033
:10094000704710F1000F91EA030F58BF994208BF9A
:1009500090422CBFD8176FEAE37040F00100704757
:100960004FEA410C7FEA6C5C02D150EA013C07D1AE
:100970004FEA430C7FEA6C5CD6D152EA033CD3D0F9
:100980005DF8040B704700BF8446104662468C46F3
:100990001946634600E000BF01B5FFF7B7FF002826
:1009A00048BF10F1000F01BD4DF808EDFFF7F4FF4F
:1009B0000CBF012000205DF808FB00BF4DF808EDDA
:1009C000FFF7EAFF34BF012000205DF808FB00BFFD
:1009D0004DF808EDFFF7E0FF94BF012000205DF81F
:1009E00008FB00BF4DF808EDFFF7CEFF94BF0120D4
:1009F00000205DF808FB00BF4DF808EDFFF7C4FFCD
:100A000034BF012000205DF808FB00BF4FEA410C15
:100A10007FEA6C5C02D150EA013C0AD14FEA430CF8
:100A20007FEA6C5C02D152EA033C02D14FF0000035
:100A300070474FF0010070474FEA410212F5001273
:100A400015D211D56FF47873B3EB625212D94FEA15
:100A5000C12343F0004343EA505311F0004F23FAFF
:100A600002F018BF404270474FF00000704750EA54
:100A7000013005D111F0004008BF6FF00040704711
:100A80004FF00000704700BF4A0011D212F500126B
:100A900011D20DD56FF47873B3EB62520ED44FEAD6
:100AA000C12343F0004343EA505323FA02F0704756
:100AB0004FF00000704750EA013002D14FF0FF3094
:100AC00070474FF0000070474FEA4102B2F1E04337
:100AD00024BFB3F5001CDCF1FE5C0DD901F0004C25
:100AE0004FEAC0024CEA5070B2F1004F40EB830075
:100AF00008BF20F00100704711F0804F21D113F1A1
:100B00003872BCBF01F00040704741F480114FEAD9
:100B10005252C2F11802C2F1200C10FA0CF320FA62
:100B200002F018BF40F001004FEAC1234FEAD3237F
:100B300003FA0CFC40EA0C0023FA02F34FEA4303E9
:100B4000CCE77FEA625307D150EA01331EBF4FF072
:100B5000FE4040F44000704701F0004040F0FE408D
:100B600040F40000704700BF38B505460C4600222F
:100B7000002328462146FFF721FF28B928462146B1
:100B8000BDE8384000F00AB8284604F1004100F002
:100B900005F8404261EB410138BD00BFD0B50022ED
:100BA0000B4B06460F46FFF797FCFFF76DFF044619
:100BB000FFF718FC0022074BFFF78EFC02460B469E
:100BC00030463946FFF7D0FAFFF75EFF2146D0BD29
:100BD0000000F03D0000F04180B483B000AF7860C9
:100BE0004FF06043D3F8803E03F00103002B13D095
:100BF0004FF06043D3F8003E03F00103002B0BD00D
:100C000000E000BF4FF060431B68002BF9D04FF0AD
:100C100060437A68D2B21A707B6818460C37BD46BA
:100C200080BC704780B500AF02F02AF800F040F8B1
:100C300000F078F900F098F800F0CEF800F026F90E
:100C400000F04EF901F01CFF04F0D2F80E4A00212A
:100C50000E4804F033F903460D4A13600D4A002193
:100C60000D4804F02BF903460C4A13600C4A00218E
:100C70000C4804F023F903460B4A136004F0EAF829
:100C80000A4807F0D5FEFEE700C700082D1000084F
:100C9000EC05002024C700084D100008F0050020D6
:100CA00048C700085D100008F40500200CC30008C8
:100CB00080B594B000AF07F1280328220021184620
:100CC00006F0DEFE07F1140300221A605A609A60F3
:100CD000DA601A613B1D00221A605A609A60DA607D
:100CE0000123BB624FF48033FB6200233B6301238B
:100CF000BB6302237B644FF48033BB644FF48013E7
:100D0000FB6407F12803184602F0E4FB0346002BBE
:100D100001D000F0C9F90F237B610223BB610023DE
:100D2000FB614FF480633B6200237B6207F1140395
:100D30000121184602F050FE0346002B01D000F0BE
:100D4000B3F910237B604FF480033B613B1D1846D1
:100D500002F0DAFF0346002B01D000F0A5F900BF36
:100D60005037BD4680BD000080B500AF184B194A12
:100D70001A60174B4FF482725A60154B4FF40042C1
:100D80009A60134B0022DA60114B00221A61104B5B
:100D900000225A610E4B4FF400729A610C4B0822EC
:100DA000DA610B4B00221A62094B00225A62084B8F
:100DB00000229A62064B0A22DA62054803F05AF8CA
:100DC0000346002B01D000F06FF900BF80BD00BFCB
:100DD0001C0200200030014080B58AB000AF07F14E
:100DE000200300221A605A603B1D00221A605A60DC
:100DF0009A60DA601A615A619A61224B224A1A603B
:100E0000204B00225A601F4B00229A601D4B4FF668
:100E1000FF72DA601B4B00221A611A4B00229A61A2
:100E2000184803F08DFA0346002B01D000F03CF97E
:100E300000233B6200237B6207F12003194611481F
:100E400003F03CFE0346002B01D000F02DF9602397
:100E50007B600023BB600023FB6000237B613B1DA4
:100E600000221946074803F05DFB0346002B01D022
:100E700000F01AF9034800F0B3F900BF2837BD4667
:100E800080BD00BF740200200004004080B500AFA8
:100E9000114B124A1A60104B4FF4E1325A600E4B5C
:100EA00000229A600C4B0022DA600B4B00221A6180
:100EB000094B0C225A61084B00229A61064B002212
:100EC000DA61054803F058FE0346002B01D000F01C
:100ED000EBF800BF80BD00BFBC0200200044004012
:100EE00080B500AF0D4B0E4A1A600C4B08225A60B9
:100EF0000A4B02229A60094B00229A61074B00229A
:100F0000DA61064B00221A62044802F0D8F903465F
:100F1000002B01D000F0C8F800BF80BD0003002006
:100F2000005C004080B588B000AF07F110030022DC
:100F30001A605A609A60DA60384B9B69374A43F00E
:100F400010039361354B9B6903F01003FB60FB6852
:100F5000324B9B69314A43F0200393612F4B9B69CD
:100F600003F02003BB60BB682C4B9B692B4A43F00A
:100F700004039361294B9B6903F004037B607B6846
:100F8000264B9B69254A43F008039361234B9B69D9
:100F900003F008033B603B6800224FF400512048F7
:100FA00002F05CF900224FF440711E4802F056F93D
:100FB000002240211C4802F051F94FF400533B61DC
:100FC00001237B610023BB610223FB6107F1100356
:100FD0001946134801F0BEFF4FF440733B610123F3
:100FE0007B610023BB610223FB6107F110031946FB
:100FF0000C4801F0AFFF40233B6101237B610023DC
:10100000BB610223FB6107F110031946064801F09A
:10101000A1FF00BF2037BD4680BD00BF00100240C9
:101020000010014000080140000C014080B582B072
:1010300000AF78604FF40051034802F027F94FF4F5
:10104000FA7003F0E5FFF5E70010014080B582B0CB
:1010500000AF7860012003F0DBFFFBE780B582B0D2
:1010600000AF7860012003F0D3FFFBE780B586B0C6
:1010700000AFF860B9607A6000237B6100237B6178
:1010800009E0BB685A1CBA601B781846FFF7A4FD3C
:101090007B6901337B617A697B689A42F1DB7B680B
:1010A00018461837BD4680BD80B500AF014807F02F
:1010B000BFFCFEE728C3000880B584B000AF184B22
:1010C0009B69174A43F001039361154B9B6903F039
:1010D0000103BB60BB68124BDB69114A43F08053CC
:1010E000D3610F4BDB6903F080537B607B68002288
:1010F0000F216FF0010001F004FF0A4B5B68FB60F9
:10110000FB6823F0E063FB60FB6843F00073FB6067
:10111000044AFB68536000BF1037BD4680BD00BF66
:10112000001002400000014080B588B000AF786038
:1011300007F1100300221A605A609A60DA607B6837
:101140001B68154A934223D1144B9B69134A43F4FD
:1011500080539361114B9B6903F48053FB60FB68E0
:101160000E4B9B690D4A43F0040393610B4B9B6943
:1011700003F00403BB60BB68A0233B6102237B61D7
:101180000323FB6107F110031946054801F0E2FE55
:1011900000BF2037BD4680BD003001400010024036
:1011A0000008014080B485B000AF78607B681B68A0
:1011B000094A93420BD1094BDB69084A43F0020309
:1011C000D361064BDB6903F00203FB60FB6800BFE1
:1011D0001437BD4680BC7047000400400010024038
:1011E00080B588B000AF786007F1100300221A6064
:1011F0005A609A60DA607B681B680F4A934217D185
:101200000E4B9B690D4A43F0040393610B4B9B69A2
:1012100003F00403FB60FB6840233B6102237B6116
:101220000223FB6107F110031946054801F092FE05
:1012300000BF2037BD4680BD0004004000100240C2
:101240000008014080B588B000AF786007F1100356
:1012500000221A605A609A60DA607B681B681B4A39
:1012600093422FD11A4BDB69194A43F40033D361FF
:10127000174BDB6903F40033FB60FB68144B9B697D
:10128000134A43F004039361114B9B6903F0040379
:10129000BB60BB6804233B6102237B610323FB61CA
:1012A00007F1100319460B4801F054FE08233B6177
:1012B00000237B610023BB6107F110031946054839
:1012C00001F048FE00BF2037BD4680BD004400400D
:1012D000001002400008014080B485B000AF786083
:1012E0007B681B68094A93420BD1094BDB69084AAA
:1012F00043F40003D361064BDB6903F40003FB6096
:10130000FB6800BF1437BD4680BC7047005C0040DE
:101310000010024080B400AF00BFBD4680BC7047E3
:1013200080B400AFFEE780B400AFFEE780B400AF4A
:10133000FEE780B400AFFEE780B400AF00BFBD465B
:1013400080BC704780B500AF01F0E0FC05F098FA72
:101350000346012B01D005F0F7FF00BF80BD80B42C
:1013600000AF01231846BD4680BC704780B582B0EF
:1013700000AF7860396006F041FA034616221A6021
:101380004FF0FF3318460837BD4680BD80B582B0A8
:1013900000AF78604FF0FF317868FFF7E7FFFEE7B6
:1013A00080B586B000AFF860B9607A6000237B61D9
:1013B0000AE0AFF300800146BB685A1CBA60CAB2AB
:1013C0001A707B6901337B617A697B689A42F0DB32
:1013D0007B6818461837BD4680BD80B483B000AF27
:1013E00078604FF0FF3318460C37BD4680BC70471D
:1013F00080B483B000AF786039603B684FF400522E
:101400005A60002318460C37BD4680BC704780B434
:1014100083B000AF7860012318460C37BD4680BC0E
:10142000704780B485B000AFF860B9607A6000237F
:1014300018461437BD4680BC7047000080B586B0A2
:1014400000AF7860144A154BD31A7B617B693B610E
:10145000134B1B68002B02D1114B124A1A60104B20
:101460001A687B6813443A699A4207D206F0C6F9B3
:1014700003460C221A604FF0FF3309E0084B1B684B
:10148000FB60074B1A687B681344054A1360FB68CE
:1014900018461837BD4680BD0050002000040000EB
:1014A000F8050020401D002080B400AF154B1B68DC
:1014B000144A43F001031360124B5A681149124B4E
:1014C00013404B600F4B1B680E4A23F0847323F4C8
:1014D000803313600B4B1B680A4A23F4802313608C
:1014E000084B5B68074A23F4FE035360054B4FF437
:1014F0001F029A60054B4FF000629A6000BFBD4624
:1015000080BC7047001002400000FFF800ED00E0D2
:101510000C480D490D4A002302E0D458C45004334E
:10152000C4188C42F9D30A4A0A4C002301E0136024
:101530000432A242FBD3FFF7B7FF06F05BFAFFF7D6
:1015400071FB704700000020000200200419010810
:1015500000020020401D0020FEE7000080B582B0A0
:1015600000AF0346FB71F91D4FF4FA7301220348E3
:1015700002F004FD00BF0837BD4680BD1C020020FC
:1015800080B500AF01224FF480710A4801F066FE79
:1015900001224021084801F061FE01224FF4007150
:1015A000044801F05BFE0421044802F019FF002307
:1015B000184680BD00080140000C01407402002064
:1015C00090B583B000AF0446084611461A4623463C
:1015D000FB800346BB800B467B8013463B801C4A46
:1015E000FB8813811A4ABB885381194A3B8893812F
:1015F000174AFB885382164ABB889382144B5B8A36
:101600009BB21946124B9B8A9BB21A46114807F0AF
:1016100089F90F4A7B88D3810D4B00221A827B887F
:10162000002B02D07B88B42B06D1094AFB8893801B
:10163000074ABB88D38006E0054ABB889380044AEA
:10164000FB88D38000BF00BF0C37BD4690BD00BFF4
:10165000FC05002034C3000880B483B000AF78607C
:10166000034A7B68136000BF0C37BD4680BC7047DF
:101670001806002080B483B000AF7860034A7B680E
:10168000136000BF0C37BD4680BC704714060020B5
:1016900080B582B000AF0346FB80FB88002B09D0E9
:1016A000FB885A2B06D0FB88B42B03D0FB88B3F5FC
:1016B000877F08D1FB881946074807F033F9074AA6
:1016C000FB88D38103E0064807F0B2F900BF00BFF2
:1016D0000837BD4680BD00BF58C30008FC05002088
:1016E00078C3000880B584B000AF0346FB800B468A
:1016F000BB8013467B80504B9B889BB2FA889A42F2
:1017000005D84D4BDB889BB2BA889A4203D94B4827
:1017100007F08EF98CE0484BDB899BB2B3F5877FED
:101720002DD0B3F5877F00F38080B42B16D0B42B77
:101730007BDC002B02D05A2B05D076E0FB88FB81A6
:10174000BB88BB8126E03C4B1B899AB2BB88D31A6D
:101750009BB2013BFB81FB88BB811BE0364B1B89A5
:101760009AB2FB88D31A9BB2013BFB81324B5B8957
:101770009AB2BB88D31A9BB2013BBB810AE0BB88FB
:10178000FB812D4B5B899AB2FB88D31A9BB2013B3C
:10179000BB8100BF284B1B8A9BB2032B47D801A2F9
:1017A00052F823F0FB170008B5170008C717000808
:1017B000D9170008204B1B899AB2FB89D31A9BB218
:1017C000013BFB811AE01C4B5B899AB2BB89D31A9F
:1017D0009BB2013BBB8111E0174B1B899AB2FB897D
:1017E000D31A9BB2013BFB81134B5B899AB2BB8935
:1017F000D31A9BB2013BBB8100E000BF0E4B1B899B
:101800009BB2FA899A4205D80B4B5B899BB2BA8985
:101810009A4203D9094807F00BF909E0084B1B6805
:101820007A88B989F889984702E000BF00E000BFD4
:101830001037BD4680BD00BFFC05002034C4000841
:101840001406002080B582B000AF0346FB80044B35
:101850001B68FA881046984700BF0837BD4680BD10
:101860001806002090B585B000AF04460846114622
:101870001A462346FB800346BB800B467B801346FB
:101880007B70444B9B889BB2FA889A4205D8414BA7
:10189000DB889BB2BA889A4203D93F4807F0C8F860
:1018A00074E097F82030012B44D10023FB8139E00C
:1018B0000023BB8129E0FA88B7F90E301A447B78FF
:1018C000D31A002B28DBBA88B7F90C301A447B787E
:1018D000D31A002B20DBFA89FB8813449AB27B7859
:1018E0009BB2D31A98B2BA89BB8813449AB27B7858
:1018F0009BB2D31A9BB27A881946FFF7F3FEB7F969
:101900000C309BB201339BB2BB81B7F90C207B78C2
:101910005B00013B9A42CEDBB7F90E309BB201333C
:101920009BB2FB81B7F90E207B785B00013B9A42AA
:10193000BEDB2BE00023FB8123E00023BB8115E00D
:10194000FA89FB8813449BB2013B98B2BA89BB88E1
:1019500013449BB2013B9BB27A881946FFF7C2FE43
:10196000B7F90C309BB201339BB2BB81B7F90C20A5
:101970007B789A42E4DBB7F90E309BB201339BB21D
:10198000FB81B7F90E207B789A42D6DB1437BD462F
:1019900090BD00BFFC0500205CC4000890B58DB070
:1019A00002AF0446084611461A462346FB8003460A
:1019B000BB800B467B8013463B804D4B9B889BB284
:1019C000FA889A4211D84A4BDB889BB2BA889A426D
:1019D0000BD8474B9B889BB27A889A4205D8444BD8
:1019E000DB889BB23A889A4203D9424807F020F834
:1019F0007BE0FB88FB84BB88BB847A88FB88D31A96
:101A0000002BB8BF5B42BB613A88BB88D31A002B5E
:101A1000B8BF5B425B427B61FA887B889A4201D205
:101A2000012301E04FF0FF333B61BA883B889A42C3
:101A300001D2012301E04FF0FF33FB60BA697B69FB
:101A400013443B620023FB77FB7F0133FB7797F85E
:101A50004030012B18D1FA7F274BA3FB0213590802
:101A60000B465B000B44D31ADBB2002B0CD197F86A
:101A70003C30B98CF88C012200924FF6FF72FFF7D0
:101A8000F1FE0023FB7708E097F83C303A8FB98CE1
:101A9000F88C01240094FFF7E5FE3B6A5B007A694D
:101AA0009A420CDCFA8C7B889A421BD03A6A7B699A
:101AB00013443B623B699AB2FB8C1344FB843B6A40
:101AC0005B00BA699A42BFDBBA8C3B889A420BD062
:101AD0003A6ABB6913443B62FB689AB2BB8C1344FD
:101AE000BB84B1E700BF00E000BF2C37BD4690BD0E
:101AF000FC0500209CC40008ABAAAAAA90B589B036
:101B000004AF0446084611461A462346FB800346A6
:101B1000BB800B467B8013463B803A4B9B889BB235
:101B2000FA889A4211D8374BDB889BB2BA889A421E
:101B30000BD8344B9B889BB27A889A4205D8314B9C
:101B4000DB889BB23A889A4203D92F4806F070FF8F
:101B500054E097F82830002B18D0BB88FB8110E0A8
:101B6000FC897A88F989F8880023029397F8243051
:101B700001933B8C00932346FFF710FFFB89013351
:101B8000FB81FA893B889A42EAD337E0BC887A889D
:101B9000B988F8880023029397F8243001933B8C8E
:101BA00000932346FFF7FAFE3C88FA88B988F88844
:101BB0000023029397F8243001933B8C0093234633
:101BC000FFF7ECFEBC887A88398878880023029376
:101BD00097F8243001933B8C00932346FFF7DEFEF9
:101BE0003C88FA88398878880023029397F8243053
:101BF00001933B8C00932346FFF7D0FE1437BD467C
:101C000090BD00BFFC050020DCC4000890B587B083
:101C100002AF0446084611461A462346FB80034697
:101C2000BB800B467B8013463B80684B9B889BB2F6
:101C3000FA889A4205D8654BDB889BB2BA889A42EB
:101C400003D3634806F0F4FE6BE10023FB817B883D
:101C5000BB817B885B009BB2C3F103039BB27B819A
:101C600097F82430012B40F05581A6E0FB893B8199
:101C700075E0FA89FB88134498B23A89BB8813440B
:101C800099B23A88012300930123FFF7EBFDFB890A
:101C9000FA88D31A98B23A89BB88134499B23A8821
:101CA000012300930123FFF7DDFD3B89FA88D31A56
:101CB00098B2FA89BB88134499B23A8801230093F9
:101CC0000123FFF7CFFD3B89FA88D31A98B2FB892D
:101CD000BA88D31A99B23A88012300930123FFF7F7
:101CE000C1FDFB89FA88D31A98B23B89BA88D31A06
:101CF00099B23A88012300930123FFF7B3FDFA89D3
:101D0000FB88134498B23B89BA88D31A99B23A88AF
:101D1000012300930123FFF7A5FD3A89FB881344B3
:101D200098B2FB89BA88D31A99B23A8801230093F2
:101D30000123FFF797FD3A89FB88134498B2FA898B
:101D4000BB88134499B23A88012300930123FFF71B
:101D500089FDB7F908309BB201339BB23B81B7F9DB
:101D60000820B7F90C309A4283DDB7F90A30002B0E
:101D700009DAFB899B009AB27B8913449BB2063334
:101D80009BB27B8113E0B7F90E20B7F90C30D31A60
:101D90009BB29B009AB27B8913449BB20A339BB2DD
:101DA0007B81B7F90C309BB2013B9BB2BB81B7F989
:101DB0000E309BB201339BB2FB81B7F90E20B7F90D
:101DC0000C309A427FF752AFABE000BFFC05002019
:101DD0000CC50008FA89FB88134498B2BA89BB88FD
:101DE000134499B297F820303A8801240094FFF701
:101DF00039FDFB89FA88D31A98B2BA89BB88134493
:101E000099B297F820303A8801240094FFF72AFD10
:101E1000BB89FA88D31A98B2FA89BB88134499B25D
:101E200097F820303A8801240094FFF71BFDBB8906
:101E3000FA88D31A98B2FB89BA88D31A99B297F85C
:101E400020303A8801240094FFF70CFDFB89FA88C2
:101E5000D31A98B2BB89BA88D31A99B297F82030AE
:101E60003A8801240094FFF7FDFCFA89FB881344AB
:101E700098B2BB89BA88D31A99B297F820303A88B9
:101E800001240094FFF7EEFCBA89FB88134498B252
:101E9000FB89BA88D31A99B297F820303A8801247E
:101EA0000094FFF7DFFCBA89FB88134498B2FA89E3
:101EB000BB88134499B297F820303A8801240094E3
:101EC000FFF7D0FCB7F90A30002B09DAFB899B0039
:101ED0009AB27B8913449BB206339BB27B8113E099
:101EE000B7F90E20B7F90C30D31A9BB29B009AB207
:101EF0007B8913449BB20A339BB27B81B7F90C30C8
:101F00009BB2013B9BB2BB81B7F90E309BB2013350
:101F10009BB2FB81B7F90E20B7F90C309A427FF7DC
:101F200059AF1437BD4690BD80B588B000AF7B6017
:101F30000346FB810B46BB811346FB724E4B9B88CD
:101F40009BB2FA899A4205D84B4BDB889BB2BA897F
:101F50009A4203D9494806F06BFD89E0FB7A203BA1
:101F60007A68D28802FB03F37A689288D20892B228
:101F700011467A68928802F0070292B2002A14BFD2
:101F800001220022D2B20A4402FB03F37B617B6888
:101F90001A687B691344BB610023FB8363E0002361
:101FA000BB834EE03B8D4FF6FF72934218D1BB6965
:101FB0001B781946BB8B03F00703802242FA03F318
:101FC0000B40002B31D0FA89BB8B134498B2BA89ED
:101FD000FB8B13449BB2BA8D1946FFF783FB24E0B9
:101FE000BB691B781946BB8B03F00703802242FABA
:101FF00003F30B40002B0CD0FA89BB8B134498B22F
:10200000BA89FB8B13449BB2BA8D1946FFF76AFB62
:102010000BE0FA89BB8B134498B2BA89FB8B13444B
:102020009BB23A8D1946FFF75DFBBB8B03F00703AC
:102030009BB2072B02D1BB690133BB61BB8B013360
:10204000BB837B689B88BA8B9A42ABD37B689B88A7
:1020500003F007039BB2002B02D0BB690133BB61C5
:10206000FB8B0133FB837B68DB88FA8B9A4296D328
:102070002037BD4680BD00BFFC05002050C50008CC
:1020800080B588B002AFBA607B600346FB810B4627
:10209000BB81FB89FB82BB89BB82234B9B889BB2A4
:1020A000FA899A4205D8204BDB889BB2BA899A42BA
:1020B00033D91E4806F0BCFC33E0FB8A7A6892886C
:1020C0001344194A928892B2934206DDFB89FB823F
:1020D0007B68DA88BB8A1344BB82BB8A7A68D28861
:1020E0001344114AD28892B2934203DDFB89FB82EA
:1020F000BB89BB82BB681A78B98AF88ABB8C01930A
:102100003B8C00937B68FFF70FFFBB680133BB601C
:102110007B689A88FB8A1344FB82BB681B78002B80
:10212000CBD11837BD4680BDFC05002090C5000806
:1021300080B58CB000AFBA607B600346FB810B4674
:10214000BB81BB68FB62FB89BB62BB893B6180E1F1
:10215000FB6A1B785BB2002BC0F2B7800023FB61E7
:10216000A2E0FB6A1A787B681968FB69A62000FB6D
:1021700003F30B441B789A4240F093807B681A6803
:10218000FB69A62101FB03F313440233BB61002367
:102190003B627EE000237B6268E03B8F4FF6FF727C
:1021A000934221D1BB691B7819467B6A5A4203F0DE
:1021B000070302F0070258BF5342802242FA03F39A
:1021C0000B40002B42D0BB6A9AB27B6A9BB213448D
:1021D00098B23B699AB23B6A9BB213449BB2BA8FE6
:1021E0001946FFF77FFA31E0BB691B7819467B6A15
:1021F0005A4203F0070302F0070258BF53428022FD
:1022000042FA03F30B40002B10D0BB6A9AB27B6AF0
:102210009BB2134498B23B699AB23B6A9BB2134497
:102220009BB2BA8F1946FFF75DFA0FE0BB6A9AB20C
:102230007B6A9BB2134498B23B699AB23B6A9BB2E9
:1022400013449BB23A8F1946FFF74CFA7B6A5A4205
:1022500003F0070302F0070258BF5342072B02D1D5
:10226000BB690133BB617B6A01337B627B681B897D
:102270001A467B6A934290DB7B681B8903F0070355
:102280009BB2002B02D0BB690133BB613B6A0133B7
:102290003B627B685B891A463B6A9342FFF67AAFE2
:1022A00009E0FB690133FB617B689B881A46FB6987
:1022B0009342FFF656AFFB6A0133FB627B68DB8813
:1022C0001A46BB6A1344BB62C3E00023FB61B0E063
:1022D000FB6A1A787B681968FB69A62000FB03F388
:1022E0000B441B789A4240F0A180FB6A01331A78B4
:1022F0007B681968FB69A62000FB03F30B445B783D
:102300009A4240F093807B681A68FB69A62101FB22
:1023100003F3134402337B6100233B627EE000231E
:102320007B6268E03B8F4FF6FF72934221D17B695D
:102330001B7819467B6A5A4203F0070302F0070232
:1023400058BF5342802242FA03F30B40002B42D085
:10235000BB6A9AB27B6A9BB2134498B23B699AB249
:102360003B6A9BB213449BB2BA8F1946FFF7BAF986
:1023700031E07B691B7819467B6A5A4203F00703F8
:1023800002F0070258BF5342802242FA03F30B4087
:10239000002B10D0BB6A9AB27B6A9BB2134498B2EE
:1023A0003B699AB23B6A9BB213449BB2BA8F1946FF
:1023B000FFF798F90FE0BB6A9AB27B6A9BB21344AD
:1023C00098B23B699AB23B6A9BB213449BB23A8F74
:1023D0001946FFF787F97B6A5A4203F0070302F0B8
:1023E000070258BF5342072B02D17B6901337B613F
:1023F0007B6A01337B627B681B891A467B6A934246
:1024000090DB7B681B8903F007039BB2002B02D093
:102410007B6901337B613B6A01333B627B685B898B
:102420001A463B6A9342FFF67AAF09E0FB69013333
:10243000FB617B689B881A46FB699342FFF648AFB5
:10244000FB6A0233FB627B681B891A46BB6A134432
:10245000BB62FB6A1B78002B7FF47AAE00BF00BF23
:102460003037BD4680BD000080B5C8B002AFC7E9B7
:10247000002307F58C73A3F5857302461A8007F5D0
:102480008C73A3F586730A461A8097F82031991C3D
:1024900007F11400D7E90023CDE900230A463249A9
:1024A00006F04CFB07F114031846FDF751FE0346F6
:1024B000184605F0C7FA0346C7F8143107F11403AC
:1024C0001846FDF745FE03469A1E07F11403194608
:1024D000D7F8140105F0C6FA07F114031846FDF702
:1024E00037FE0346013BD7F81421134400221A702B
:1024F00007F114031846FDF72BFE0346033BD7F8FC
:10250000142113441B782E2B0BD107F1140318460A
:10251000FDF71EFE0346033BD7F8142113440022A7
:102520001A7007F58C73A3F58673198807F58C73F9
:10253000A3F585731888B7F828310193B7F82C31C3
:102540000093D7F82431D7F81421FFF799FDD7F875
:10255000140105F07FFA0023C7F8143100BF07F516
:102560008C77BD4680BD00BF14C6000890B587B00B
:1025700000AFF860084611461A4603467B810B46B9
:102580003B811346FB8000233B6149E000237B61D4
:102590003FE07A897B691344264A128992B29342BA
:1025A00034DA3A893B691344224A528992B29342FF
:1025B0002CDA7B699AB27B89134498B23B699AB250
:1025C0003B8913449CB2FB883A6902FB03F35B002E
:1025D0001A467B695B0013440133FA6813441B7885
:1025E0001B021AB2FB88396901FB03F35B00194631
:1025F0007B695B000B44F9680B441B781BB21343E7
:102600001BB29BB21A462146FFF76CF87B69013377
:102610007B61FB887A699A42BBDB3B6901333B6192
:102620003B8D3A699A42B1DB00BF00BF1C37BD4603
:1026300090BD00BFFC05002080B500AF01224FF423
:1026400000710D4800F00AFE642000F07BFB0022C0
:102650004FF40071084800F001FE642000F072FBA6
:1026600001224FF40071044800F0F8FD642000F0EE
:1026700069FB00BF80BD00BF0008014080B582B08B
:1026800000AF0346FB7100224FF48071074800F051
:10269000E5FD00224021064800F0E0FDFB791846E8
:1026A000FEF75CFF00BF0837BD4680BD0008014053
:1026B000000C014080B582B000AF0346FB710122DF
:1026C0004FF480710A4800F0C9FD002240210948FA
:1026D00000F0C4FDFB791846FEF740FF01224021BF
:1026E000044800F0BBFD00BF0837BD4680BD00BFF9
:1026F00000080140000C014080B582B000AF0346E5
:10270000FB8001224FF480710E4800F0A7FD0022EB
:1027100040210D4800F0A2FDFB881B0A9BB2DBB2F2
:102720001846FEF71BFFFB88DBB21846FEF716FFC4
:1027300001224021044800F091FD00BF0837BD464A
:1027400080BD00BF00080140000C014080B500AF13
:102750003A20FFF793FF0520FFF7ACFFB220FFF709
:102760008DFF0C20FFF7A6FF0C20FFF7A3FF002032
:10277000FFF7A0FF3320FFF79DFF3320FFF79AFFFD
:10278000B720FFF77BFF3520FFF794FFBB20FFF753
:1027900075FF1920FFF78EFFC020FFF76FFF2C2079
:1027A000FFF788FFC220FFF769FF0120FFF782FFD4
:1027B000C320FFF763FF1220FFF77CFFC420FFF761
:1027C0005DFF2020FFF776FFC620FFF757FF0F20A1
:1027D000FFF770FFD020FFF751FFA420FFF76AFF3B
:1027E000A120FFF767FFE020FFF748FFD020FFF7A9
:1027F00061FF0420FFF75EFF0D20FFF75BFF112054
:10280000FFF758FF1320FFF755FF2B20FFF752FF6C
:102810003F20FFF74FFF5420FFF74CFF4C20FFF7FE
:1028200049FF1820FFF746FF0D20FFF743FF0B205D
:10283000FFF740FF1F20FFF73DFF2320FFF73AFF80
:10284000E120FFF71BFFD020FFF734FF0420FFF744
:1028500031FF0C20FFF72EFF1120FFF72BFF132075
:10286000FFF728FF2C20FFF725FF3F20FFF722FF6F
:102870004420FFF71FFF5120FFF71CFF2F20FFF719
:1028800019FF1F20FFF716FF1F20FFF713FF20205F
:10289000FFF710FF2320FFF70DFF2120FFF7EEFECB
:1028A0001120FFF7EBFE2920FFF7E8FE00BF80BDF7
:1028B00080B584B000AF0346FB71124AFB791371F7
:1028C0000023FB73FB79002B08D10E4BF0225A80BA
:1028D0000C4BF0221A807023FB7307E0094BF022A7
:1028E0005A80084BF0221A800023FB733620FFF732
:1028F000C5FEFB7B1846FFF7DDFE00BF1037BD4667
:1029000080BD00BF1C06002080B582B000AF03462A
:10291000FB71FFF791FEFB791846FFF7C9FFFFF740
:1029200015FF00BF0837BD4680BD90B583B000AF2E
:102930000446084611461A462346FB800346BB80E0
:102940000B467B8013463B802A20FFF797FEFB88CF
:102950001B0A9BB2DBB21846FFF7ACFEFB88DBB26A
:102960001846FFF7A7FE7B881B0A9BB2DBB218460E
:10297000FFF7A0FE7B88DBB21846FFF79BFE2B20FB
:10298000FFF77CFEBB881B0A9BB2DBB21846FFF741
:1029900091FEBB88DBB21846FFF78CFE3B881B0A12
:1029A0009BB2DBB21846FFF785FE3B88DBB21846C8
:1029B000FFF780FE2C20FFF761FE00BF0C37BD46FD
:1029C00090BD000080B584B000AF0346FB80EF23CC
:1029D000EF2200210020FFF7A8FF01224FF48071B1
:1029E000124800F03BFC0023FB8117E00023BB8171
:1029F0000EE0FB881B0A9BB2DBB21846FEF7AEFD69
:102A0000FB88DBB21846FEF7A9FDBB890133BB8109
:102A1000BB89EF2BEDD9FB890133FB81FB89EF2BC0
:102A2000E4D900BF00BF1037BD4680BD000801409B
:102A300080B582B000AF0346FB800B46BB801346D7
:102A40007B80BB88FA88B988F888FFF76EFF7B889F
:102A50001846FFF751FE00BF0837BD4680BD000095
:102A600080B483B000AF0346FB80044AFB88536305
:102A700000BF0C37BD4680BC704700BF000400405B
:102A800080B584B004AF6E4805F0D2FFFEF778FD44
:102A90006C4805F0CDFF4FF47A70FFF7E1FF01209D
:102AA000FFF732FF4FF6FF70FFF78CFF664805F027
:102AB000BFFF4FF6FF730022F021F020FEF780FDEC
:102AC000624805F0B5FF6248FEF7C6FD6148FEF7B3
:102AD000D1FD614805F0ACFF4FF6FF70FEF7B2FE86
:102AE0004FF47A7000F02EF95C4805F0A1FFB42095
:102AF000FEF7CEFD4FF4784301934FF6E073009359
:102B0000574B584A0A211E20FFF7BAFA47F6FF73BF
:102B100001931F230093524B534A22211E20FFF79B
:102B2000AFFA002303934FF6FF7302934F4B0193C9
:102B30000323009340A3D3E900233A211E20FFF78B
:102B400093FC4FF4784301934FF6FF730093484B87
:102B5000484AB4213220FFF7EBFA3C2300933C2390
:102B6000462219214448FFF701FD00230293022366
:102B700001934FF4784300933A23E1220A217D2008
:102B8000FEF7BCFF00230293022301934FF61F03BD
:102B900000933A23E1220A217D20FEF7FFFE002365
:102BA0000293022301934FF61F0300933A237D22E1
:102BB0000A21E120FEF7F2FE002301930223009395
:102BC0001F23192264219620FFF720F80023019388
:102BD00002230093002319226421B420FFF716F882
:102BE00000230193022300934FF4784319226421B8
:102BF000D220FFF70BF800230193022300934FF636
:102C0000E07319227D21A520FFF700F8002301932E
:102C1000022300934FF4FC6319227D21C320FEF7A9
:102C2000F5FF40F6B83000F08DF8144805F000FFCD
:102C300000BFBD4680BD00BFB000A60C3CDD8E408D
:102C400028C6000840C6000860C6000870C6000814
:102C5000C5290008312A000890C60008A0C600084F
:102C60000C000020ACC60008B0C60008040000201C
:102C700014000020B8C6000834F80008CCC60008CC
:102C800080B500AF084B1B68074A43F01003136080
:102C9000032000F02BF90F2000F008F8FEF70CFAE3
:102CA0000023184680BD00BF0020024080B582B0DE
:102CB00000AF7860124B1A68124B1B7819464FF41C
:102CC0007A73B3FBF1F3B2FBF3F3184600F035F976
:102CD0000346002B01D001230EE07B680F2B0AD89E
:102CE000002279684FF0FF3000F00BF9064A7B684C
:102CF0001360002300E0012318460837BD4680BD5D
:102D000000000020240000202000002080B400AF3C
:102D1000054B1B781A46054B1B681344034A136086
:102D200000BFBD4680BC7047240000202406002060
:102D300080B400AF024B1B681846BD4680BC70478C
:102D40002406002080B584B000AF7860FFF7F0FF64
:102D5000B8607B68FB60FB68B3F1FF3F05D00A4BAE
:102D60001B781A46FB681344FB6000BFFFF7E0FFC7
:102D70000246BB68D31AFA689A42F7D800BF00BF70
:102D80001037BD4680BD00BF2400002080B485B050
:102D900000AF78607B6803F00703FB600C4BDB68D7
:102DA000BB60BA684FF6FF031340BB60FB681A02B2
:102DB000BB68134343F0BF6343F40033BB60044A72
:102DC000BB68D36000BF1437BD4680BC704700BFEE
:102DD00000ED00E080B400AF044BDB681B0A03F099
:102DE00007031846BD4680BC704700BF00ED00E0F9
:102DF00080B483B000AF03463960FB7197F90730A8
:102E0000002B0ADB3B68DAB20C4997F90730120154
:102E1000D2B20B4483F800230AE03B68DAB20849D7
:102E2000FB7903F00F03043B1201D2B20B441A7674
:102E300000BF0C37BD4680BC704700BF00E100E01A
:102E400000ED00E080B489B000AFF860B9607A604E
:102E5000FB6803F00703FB61FB69C3F10703042B65
:102E600028BF0423BB61FB690433062B02D9FB692D
:102E7000033B00E000237B614FF0FF32BB6902FAA5
:102E800003F3DA43BB681A407B699A404FF0FF3185
:102E90007B6901FA03F3D9437B680B40134318465F
:102EA0002437BD4680BC704780B582B000AF7860E3
:102EB0007B68013BB3F1807F01D301230FE00A4A15
:102EC0007B68013B53600F214FF0FF30FFF790FF0D
:102ED000054B00229A60044B07221A600023184613
:102EE0000837BD4680BD00BF10E000E080B582B06D
:102EF00000AF78607868FFF749FF00BF0837BD462C
:102F000080BD80B586B000AF0346B9607A60FB73C0
:102F100000237B61FFF75EFF78617A68B9687869A2
:102F2000FFF790FF024697F90F3011461846FFF75A
:102F30005FFF00BF1837BD4680BD80B582B000AFCF
:102F400078607868FFF7B0FF034618460837BD463B
:102F500080BD000080B48BB000AF78603960002382
:102F60007B6200233B6269E101227B6A02FA03F380
:102F7000FB613B681B68FA691340BB61BA69FB6976
:102F80009A4240F058813B685B689A4A93425ED00F
:102F9000984A934275D8984A934258D0964A934299
:102FA0006FD8964A934252D0944A934269D8944A31
:102FB00093424CD0924A934263D8924A934246D06D
:102FC000904A93425DD8122B2AD8122B59D801A2CD
:102FD00052F823F04F300008293000083B30000839
:102FE0007D300008833000088330000883300008FB
:102FF00083300008833000088330000883300008E5
:1030000083300008833000088330000883300008D4
:103010008330000883300008313000084530000854
:10302000794A934213D02CE03B68DB683B6229E08D
:103030003B68DB6804333B6224E03B68DB680833B1
:103040003B621FE03B68DB680C333B621AE03B6885
:103050009B68002B02D104233B6213E03B689B6812
:10306000012B05D108233B627B68FA691A6109E0EC
:1030700008233B627B68FA695A6103E000233B62E4
:1030800000E000BFBB69FF2B01D87B6801E07B68D3
:1030900004337B61BB69FF2B02D87B6A9B0002E093
:1030A0007B6A083B9B003B617B691A680F213B6987
:1030B00001FA03F3DB431A40396A3B6901FA03F36F
:1030C0001A437B691A603B685B6803F08053002BEE
:1030D00000F0B1804D4B9B694C4A43F00103936172
:1030E0004A4B9B6903F00103BB60BB68484A7B6A9B
:1030F0009B08023352F82330FB607B6A03F0030322
:103100009B000F2202FA03F3DB43FA681340FB60D3
:103110007B68404A934213D07B683F4A93420DD06C
:103120007B683E4A934207D07B683D4A934201D177
:10313000032306E0042304E0022302E0012300E06D
:1031400000237A6A02F0030292009340FA68134364
:10315000FB602F497B6A9B080233FA6841F8232001
:103160003B685B6803F48033002B06D02D4B1A6854
:103170002C49BB6913430B6006E02A4B1A68BB69F4
:10318000DB43284913400B603B685B6803F4003362
:10319000002B06D0234B5A682249BB6913434B606E
:1031A00006E0204B5A68BB69DB431E4913404B6065
:1031B0003B685B6803F48013002B06D0194B9A68B8
:1031C0001849BB6913438B6006E0164B9A68BB69CC
:1031D000DB43144913408B603B685B6803F40013C6
:1031E000002B21D00F4BDA680E49BB691343CB602B
:1031F00021E000BF0000321000003110000022105A
:1032000000002110000012100000111000100240F8
:103210000000014000080140000C01400010014086
:1032200000140140000401400B4BDA68BB69DB432A
:1032300009491340CB607B6A01337B623B681A68A3
:103240007B6A22FA03F3002B7FF48EAE00BF00BF2F
:103250002C37BD4680BC70470004014080B483B069
:1032600000AF78600B467B8013467B707B78002B29
:1032700003D07A887B681A6103E07B881A047B6834
:103280001A6100BF0C37BD4680BC704780B485B062
:1032900000AF78600B467B807B68DB68FB607A88D8
:1032A000FB6813401A04FB68D9437B880B401A4320
:1032B0007B681A6100BF1437BD4680BC7047F0B50B
:1032C0008BB006AF78607B68002B01D10123FDE055
:1032D0007B6893F8A932DBB2002B06D17B68002211
:1032E00083F8A8227868FDF7F7FF7B68032283F84C
:1032F000A9227B681B68184601F02AFD7B681B68C1
:103300003B607E686D4606F110040FCC0FC5236844
:103310002B60331D0ECB386801F00AFD0346002BED
:1033200005D07B68022283F8A9220123CEE07B68C6
:103330001B680021184601F025FD0023FB734CE0BB
:10334000FB7B79685A1C13469B001344DB000B443B
:10335000013301221A70FB7B79685A1C13469B00CB
:103360001344DB000B44FA7B1A70FA7BFB7B98B2A8
:10337000796813469B001344DB000B443633024646
:103380001A80FB7B79685A1C13469B001344DB00B0
:103390000B44033300221A70FA7B796813469B00B2
:1033A0001344DB000B44383300221A60FA7B79683F
:1033B00013469B001344DB000B443C3300221A608D
:1033C000FA7B796813469B001344DB000B444033BF
:1033D00000221A60FB7B0133FB73FA7B7B685B681E
:1033E0009A42ADD30023FB7344E0FA7B796813461D
:1033F0009B001344DB000B4403F2691300221A7094
:10340000FA7B796813469B001344DB000B4403F5F9
:10341000B473FA7B1A70FA7B796813469B001344E5
:10342000DB000B4403F26B1300221A70FA7B7968FD
:1034300013469B001344DB000B4403F5BC730022CE
:103440001A60FA7B796813469B001344DB000B4437
:1034500003F5BE7300221A60FA7B796813469B005D
:103460001344DB000B4403F5C07300221A60FB7B9E
:103470000133FB73FA7B7B685B689A42B5D37B6848
:103480001B683B607E686D4606F110040FCC0FC5CB
:1034900023682B60331D0ECB386801F07FFC034698
:1034A000002B05D07B68022283F8A92201230DE0BE
:1034B0007B68002283F824207B68012283F8A922FC
:1034C0007B681B68184601F089FC002318461437F6
:1034D000BD46F0BD80B586B000AF78607B68002B3C
:1034E00001D1012372E27B681B6803F00103002B0A
:1034F00000F08780924B5B6803F00C03042B0CD028
:103500008F4B5B6803F00C03082B12D18C4B5B686C
:1035100003F48033B3F5803F0BD1894B1B6803F470
:103520000033002B6CD07B685B68002B68D10123D3
:103530004CE27B685B68B3F5803F06D1804B1B682B
:103540007F4A43F4803313602EE07B685B68002B76
:103550000CD17B4B1B687A4A23F480331360784B81
:103560001B68774A23F4802313601DE07B685B6847
:10357000B3F5A02F0CD1724B1B68714A43F4802322
:1035800013606F4B1B686E4A43F4803313600BE08B
:103590006B4B1B686A4A23F480331360684B1B68CB
:1035A000674A23F4802313607B685B68002B13D089
:1035B000FFF7BEFB386108E0FFF7BAFB02463B6944
:1035C000D31A642B01D9032300E25D4B1B6803F47B
:1035D0000033002BF0D014E0FFF7AAFB386108E0BD
:1035E000FFF7A6FB02463B69D31A642B01D90323DC
:1035F000ECE1534B1B6803F40033002BF0D100E0E7
:1036000000BF7B681B6803F00203002B63D04C4BA8
:103610005B6803F00C03002B0BD0494B5B6803F095
:103620000C03082B1CD1464B5B6803F48033002B42
:1036300016D1434B1B6803F00203002B05D07B68B7
:103640001B69012B01D00123C0E13D4B1B6823F016
:10365000F8027B685B69DB00394913430B603AE091
:103660007B681B69002B20D0364B01221A60FFF7C4
:103670005FFB386108E0FFF75BFB02463B69D31A4A
:10368000022B01D90323A1E12D4B1B6803F0020398
:10369000002BF0D02A4B1B6823F0F8027B685B6993
:1036A000DB00274913430B6015E0264B00221A600C
:1036B000FFF73EFB386108E0FFF73AFB02463B6943
:1036C000D31A022B01D9032380E11D4B1B6803F0A1
:1036D0000203002BF0D17B681B6803F00803002B6A
:1036E0003AD07B689B69002B19D0174B01221A60D6
:1036F000FFF71EFB386108E0FFF71AFB02463B6943
:10370000D31A022B01D9032360E10D4B5B6A03F04E
:103710000203002BF0D0012000F0D8FA1CE00A4B85
:1037200000221A60FFF704FB38610FE0FFF700FB8F
:1037300002463B69D31A022B08D9032346E100BF96
:10374000001002400000424280044242924B5B6AF9
:1037500003F00203002BE9D17B681B6803F004032C
:10376000002B00F0A6800023FB758B4BDB6903F078
:103770008053002B0DD1884BDB69874A43F080537F
:10378000D361854BDB6903F08053BB60BB680123C9
:10379000FB75824B1B6803F48073002B18D17F4BA1
:1037A0001B687E4A43F480731360FFF7C1FA3861E7
:1037B00008E0FFF7BDFA02463B69D31A642B01D932
:1037C000032303E1754B1B6803F48073002BF0D0D7
:1037D0007B68DB68012B06D16F4B1B6A6E4A43F096
:1037E000010313622DE07B68DB68002B0CD16A4B70
:1037F0001B6A694A23F001031362674B1B6A664A1E
:1038000023F0040313621CE07B68DB68052B0CD1FA
:10381000614B1B6A604A43F0040313625E4B1B6AF0
:103820005D4A43F0010313620BE05B4B1B6A5A4A8B
:1038300023F001031362584B1B6A574A23F0040319
:1038400013627B68DB68002B15D0FFF771FA3861D3
:103850000AE0FFF76DFA02463B69D31A41F288325B
:10386000934201D90323B1E04B4B1B6A03F00203DF
:10387000002BEED014E0FFF75BFA38610AE0FFF7A7
:1038800057FA02463B69D31A41F28832934201D972
:1038900003239BE0404B1B6A03F00203002BEED195
:1038A000FB7D012B05D13C4BDB693B4A23F0805368
:1038B000D3617B68DB69002B00F08780364B5B6847
:1038C00003F00C03082B61D07B68DB69022B46D127
:1038D000334B00221A60FFF72BFA386108E0FFF73C
:1038E00027FA02463B69D31A022B01D903236DE064
:1038F000294B1B6803F00073002BF0D17B681B6A17
:10390000B3F5803F08D1244B5B6823F400327B6819
:103910009B68214913434B601F4B5B6823F474126F
:103920007B68196A7B685B6A0B431B4913434B60D6
:103930001B4B01221A60FFF7FBF9386108E0FFF723
:10394000F7F902463B69D31A022B01D903233DE064
:10395000114B1B6803F00073002BF0D035E0104BC7
:1039600000221A60FFF7E4F9386108E0FFF7E0F998
:1039700002463B69D31A022B01D9032326E0064BEA
:103980001B6803F00073002BF0D11EE07B68DB693D
:10399000012B07D1012319E0001002400070004004
:1039A000600042420B4B5B68FB60FB6803F48032B3
:1039B0007B681B6A9A4206D1FB6803F470127B682D
:1039C0005B6A9A4201D0012300E0002318461837B1
:1039D000BD4680BD0010024080B584B000AF786065
:1039E00039607B68002B01D10123D0E06A4B1B6852
:1039F00003F007033A689A4210D9674B1B6823F01B
:103A0000070265493B6813430B60634B1B6803F077
:103A100007033A689A4201D00123B8E07B681B682B
:103A200003F00203002B20D07B681B6803F0040323
:103A3000002B05D0594B5B68584A43F4E063536050
:103A40007B681B6803F00803002B05D0534B5B68B1
:103A5000524A43F460535360504B5B6823F0F002CA
:103A60007B689B684D4913434B607B681B6803F080
:103A70000103002B40D07B685B68012B07D1474BCB
:103A80001B6803F40033002B15D101237FE07B6812
:103A90005B68022B07D1414B1B6803F00073002BBE
:103AA00009D1012373E03D4B1B6803F00203002B97
:103AB00001D101236BE0394B5B6823F003027B6883
:103AC0005B68364913434B60FFF732F9F8600AE050
:103AD000FFF72EF90246FB68D31A41F2883293426F
:103AE00001D9032353E02D4B5B6803F00C027B6884
:103AF0005B689B009A42EBD1274B1B6803F00703DE
:103B00003A689A4210D2244B1B6823F007022249DC
:103B10003B6813430B60204B1B6803F007033A68B4
:103B20009A4201D0012332E07B681B6803F0040352
:103B3000002B08D0194B5B6823F4E0627B68DB68DC
:103B4000164913434B607B681B6803F00803002B86
:103B500009D0124B5B6823F460527B681B69DB0061
:103B60000E4913434B6000F021F802460B4B5B6893
:103B70001B0903F00F030A49CB5C22FA03F3094A3D
:103B80001360094B1B681846FFF790F8002318468E
:103B90001037BD4680BD00BF00200240001002402B
:103BA0006CC70008000000202000002090B48AB0FC
:103BB00000AF294B3C1D0FCB84E80F0040F20123DE
:103BC0003B800023FB610023BB6100237B62002359
:103BD0007B6100233B62214B5B68FB61FB6903F067
:103BE0000C03042B02D0082B03D02BE01C4B3B62B0
:103BF0002BE0FB699B0C03F00F0328333B4413F8C5
:103C0000243C7B61FB6903F48033002B12D0134BFF
:103C10005B685B0C03F0010328333B4413F8283C3A
:103C2000BB617B690E4A03FB02F2BB69B2FBF3F393
:103C30007B6204E07B690B4A02FB03F37B627B6AD5
:103C40003B6202E0064B3B6200BF3B6A18462837E6
:103C5000BD4690BC704700BFD8C6000800100240A7
:103C600000127A0000093D0080B400AF024B1B68CF
:103C70001846BD4680BC70470000002080B500AFEC
:103C8000FFF7F2FF0246054B5B681B0A03F00703D0
:103C90000349CB5C22FA03F3184680BD00100240B2
:103CA0007CC7000880B500AFFFF7DEFF0246054B7A
:103CB0005B68DB0A03F007030349CB5C22FA03F3DA
:103CC000184680BD001002407CC7000880B485B053
:103CD00000AF78600A4B1B680A4AA2FB03235B0A09
:103CE0007A6802FB03F3FB6000BFFB685A1EFA60B0
:103CF000002BF9D100BF00BF1437BD4680BC704710
:103D000000000020D34D621080B586B000AF78600F
:103D100000233B610023FB607B681B6803F0010309
:103D2000002B7DD00023FB754F4BDB6903F08053E4
:103D3000002B0DD14C4BDB694B4A43F08053D361D0
:103D4000494BDB6903F08053BB60BB680123FB7503
:103D5000464B1B6803F48073002B18D1434B1B6840
:103D6000424A43F480731360FEF7E2FF386108E0D3
:103D7000FEF7DEFF02463B69D31A642B01D9032309
:103D80006DE03A4B1B6803F48073002BF0D0364B88
:103D90001B6A03F44073FB60FB68002B2ED07B682A
:103DA0005B6803F44073FA689A4227D02E4B1B6A73
:103DB00023F44073FB602E4B01221A602C4B00222F
:103DC0001A60294AFB681362FB6803F00103002BA9
:103DD00014D0FEF7ADFF38610AE0FEF7A9FF0246F6
:103DE0003B69D31A41F28832934201D9032336E06A
:103DF0001D4B1B6A03F00203002BEED01A4B1B6A0B
:103E000023F440727B685B68174913430B62FB7DA8
:103E1000012B05D1144BDB69134A23F08053D36186
:103E20007B681B6803F00203002B08D00E4B5B6815
:103E300023F440427B689B680B4913434B607B68CB
:103E40001B6803F01003002B08D0074B5B6823F4BA
:103E500080027B68DB68044913434B6000231846EB
:103E60001837BD4680BD00BF001002400070004002
:103E70004004424280B582B000AF78607B68002B7E
:103E800001D1012376E07B685B6A002B08D17B6857
:103E90005B68B3F5827F09D07B680022DA6105E0B8
:103EA0007B6800221A617B6800225A617B680022CD
:103EB0009A627B6893F85130DBB2002B06D17B68A5
:103EC000002283F850207868FDF72EF97B680222E3
:103ED00083F851207B681B681A687B681B6822F096
:103EE00040021A607B685B6803F482727B689B689F
:103EF00003F404431A437B68DB6803F400631A434A
:103F00007B681B6903F002031A437B685B6903F05B
:103F100001031A437B689B6903F400731A437B68AF
:103F2000DB6903F038031A437B681B6A03F08003E4
:103F300042EA03017B689B6A03F400527B681B68BA
:103F40000A431A607B689B691A0C7B681B6802F045
:103F500004025A607B681B68DA697B681B6822F47C
:103F60000062DA617B6800225A657B68012283F86F
:103F70005120002318460837BD4680BD80B588B063
:103F800000AFF860B9603B601346FB800023FB770D
:103F9000FB6893F85030012B01D1022326E1FB6826
:103FA000012283F85020FEF7C3FEB861FB88FB8234
:103FB000FB6893F85130DBB2012B02D00223FB7770
:103FC0000BE1BB68002B02D0FB88002B02D1012340
:103FD000FB7702E1FB68032283F85120FB68002293
:103FE0005A65FB68BA681A63FB68FA889A86FB68A8
:103FF000FA88DA86FB6800229A63FB6800229A87B7
:10400000FB680022DA87FB6800225A64FB68002202
:104010001A64FB689B68B3F5004F0FD1FB681B68FF
:104020001A68FB681B6822F040021A60FB681B6874
:104030001A68FB681B6842F480421A60FB681B68C0
:104040001B6803F04003402B07D0FB681B681A680D
:10405000FB681B6842F040021A60FB68DB68B3F53E
:10406000006F4BD1FB685B68002B02D0FB8A012BF1
:104070003ED1FB681B6B1A88FB681B68DA60FB6823
:104080001B6B9A1CFB681A63FB68DB8E9BB2013BBF
:104090009AB2FB68DA862BE0FB681B689B6803F02A
:1040A0000203022B12D1FB681B6B1A88FB681B688A
:1040B000DA60FB681B6B9A1CFB681A63FB68DB8E7B
:1040C0009BB2013B9AB2FB68DA8611E0FEF730FE44
:1040D0000246BB69D31A3A689A4203D83B68B3F1E7
:1040E000FF3F02D13B68002B02D10323FB7774E032
:1040F000FB68DB8E9BB2002BCED14CE0FB685B688B
:10410000002B02D0FB8A012B40D1FB681A6BFB68A5
:104110001B680C3312781A70FB681B6B5A1CFB6807
:104120001A63FB68DB8E9BB2013B9AB2FB68DA86AE
:104130002CE0FB681B689B6803F00203022B13D181
:10414000FB681A6BFB681B680C3312781A70FB68EB
:104150001B6B5A1CFB681A63FB68DB8E9BB2013B2E
:104160009AB2FB68DA8611E0FEF7E2FD0246BB690F
:10417000D31A3A689A4203D83B68B3F1FF3F02D1A1
:104180003B68002B02D10323FB7726E0FB68DB8E24
:104190009BB2002BCDD1BA693968F86800F0B2F84B
:1041A0000346002B02D0FB6820225A65FB689B68FF
:1041B000002B0AD100233B61FB681B68DB683B6175
:1041C000FB681B689B683B613B69FB685B6D002B70
:1041D00002D00123FB7700E000BFFB68012283F8D7
:1041E0005120FB68002283F85020FB7F18462037BF
:1041F000BD4680BD80B588B000AFF860B9603B6057
:104200001346FB71FEF794FD0246BB6A9B1A3A689F
:104210001344FB61FEF78CFDB861394B1B685B01F1
:104220001B0DFA6902FB03F37B6154E03B68B3F1B9
:10423000FF3F50D0FEF77CFD0246BB69D31AFA69F6
:104240009A4202D9FB69002B3DD1FB681B685A6872
:10425000FB681B6822F0E0025A60FB685B68B3F5FC
:10426000827F11D1FB689B68B3F5004F04D0FB68D7
:104270009B68B3F5806F07D1FB681B681A68FB6801
:104280001B6822F040021A60FB689B6AB3F5005F6E
:104290000FD1FB681B681A68FB681B6822F4005288
:1042A0001A60FB681B681A68FB681B6842F40052BE
:1042B0001A60FB68012283F85120FB68002283F812
:1042C0005020032317E07B69002B01D10023FB6101
:1042D0007B69013B7B61FB681B689A68BB68134084
:1042E000BA689A420CBF01230023DBB21A46FB795D
:1042F0009A429BD1002318462037BD4680BD00BF9F
:104300000000002080B586B002AFF860B9607A6026
:104310007B680093BB6800228021F868FFF76AFF82
:104320000346002B07D0FB685B6D43F02002FB685F
:104330005A65032300E0002318461037BD4680BDB0
:1043400080B582B000AF78607B68002B01D101237B
:1043500041E07B6893F83D30DBB2002B06D17B68EF
:10436000002283F83C207868FCF71CFF7B6802225F
:1043700083F83D207B681A687B6804331946104631
:1043800000F08EF97B68012283F846207B680122C9
:1043900083F83E207B68012283F83F207B6801225E
:1043A00083F840207B68012283F841207B6801224A
:1043B00083F842207B68012283F843207B68012236
:1043C00083F844207B68012283F845207B68012222
:1043D00083F83D20002318460837BD4680BD000005
:1043E00080B584B000AF786039603B68002B09D19C
:1043F0007B6893F83E30DBB2012B14BF012300230E
:10440000DBB222E03B68042B09D17B6893F83F3094
:10441000DBB2012B14BF01230023DBB215E03B68A4
:10442000082B09D17B6893F84030DBB2012B14BF15
:1044300001230023DBB208E07B6893F84130DBB254
:10444000012B14BF01230023DBB2002B01D0012379
:104450005EE03B68002B04D17B68022283F83E209B
:1044600013E03B68042B04D17B68022283F83F20D1
:104470000BE03B68082B04D17B68022283F84020C4
:1044800003E07B68022283F841207B681B680122DD
:104490003968184600F0EEFA7B681B681E4A9342A2
:1044A00007D17B681B685A6C7B681B6842F400422A
:1044B0005A647B681B68184A93420ED07B681B685D
:1044C000B3F1804F09D07B681B68144A934204D033
:1044D0007B681B68124A934211D17B681B689B68FA
:1044E00003F00703FB60FB68062B10D07B681B689A
:1044F0001A687B681B6842F001021A6007E07B685B
:104500001B681A687B681B6842F001021A6000236E
:1045100018461037BD4680BD002C01400004004005
:104520000008004080B584B000AFF860B9607A60E0
:10453000FB6893F83C30012B01D10223ACE0FB680F
:10454000012283F83C207B680C2B00F29F8001A2A3
:1045500052F823F0894500088D4600088D46000872
:104560008D460008C94500088D4600088D460008A4
:104570008D4600080B4600088D4600088D46000851
:104580008D4600084B460008FB681B68B968184652
:1045900000F0E8F8FB681B689A69FB681B6842F04A
:1045A00008029A61FB681B689A69FB681B6822F025
:1045B00004029A61FB681B689969BB681A69FB6809
:1045C0001B680A439A6162E0FB681B68B968184679
:1045D00000F02EF9FB681B689A69FB681B6842F4BF
:1045E00000629A61FB681B689A69FB681B6822F489
:1045F00080629A61FB681B689969BB681B691A0233
:10460000FB681B680A439A6141E0FB681B68B96854
:10461000184600F077F9FB681B68DA69FB681B68CD
:1046200042F00802DA61FB681B68DA69FB681B6804
:1046300022F00402DA61FB681B68D969BB681A6959
:10464000FB681B680A43DA6121E0FB681B68B968F4
:10465000184600F0C1F9FB681B68DA69FB681B6843
:1046600042F40062DA61FB681B68DA69FB681B6868
:1046700022F48062DA61FB681B68D969BB681B6938
:104680001A02FB681B680A43DA6100E000BFFB689E
:10469000002283F83C20002318461037BD4680BD19
:1046A00080B485B000AF786039607B681B68FB60C0
:1046B0007B68294A93420BD07B68B3F1804F07D0C7
:1046C0007B68264A934203D07B68254A934208D1EF
:1046D000FB6823F07003FB603B685B68FA68134378
:1046E000FB607B681C4A93420BD07B68B3F1804F20
:1046F00007D07B68194A934203D07B68184A9342DB
:1047000008D1FB6823F44073FB603B68DB68FA6800
:104710001343FB60FB6823F080023B685B69134333
:10472000FB607B68FA681A603B689A687B68DA62AB
:104730003B681A687B689A627B68074A934203D198
:104740003B681A697B681A637B6801225A6100BF63
:104750001437BD4680BC7047002C01400004004067
:104760000008004080B487B000AF786039607B6893
:104770001B6A23F001027B681A627B681B6A7B61FB
:104780007B685B683B617B689B69FB60FB6823F02F
:104790007003FB60FB6823F00303FB603B681B684E
:1047A000FA681343FB607B6923F002037B613B687B
:1047B0009B687A6913437B617B681C4A93420CD1E6
:1047C0007B6923F008037B613B68DB687A691343EC
:1047D0007B617B6923F004037B617B68134A93420E
:1047E00011D13B6923F480733B613B6923F400736F
:1047F0003B613B685B693A6913433B613B689B697A
:104800003A6913433B617B683A695A607B68FA688E
:104810009A613B685A687B685A637B687A691A6256
:1048200000BF1C37BD4680BC704700BF002C014054
:1048300080B487B000AF786039607B681B6A23F072
:1048400010027B681A627B681B6A7B617B685B680D
:104850003B617B689B69FB60FB6823F4E043FB6082
:10486000FB6823F44073FB603B681B681B02FA681B
:104870001343FB607B6923F020037B613B689B68EB
:104880001B017A6913437B617B681D4A93420DD1FA
:104890007B6923F080037B613B68DB681B017A69DD
:1048A00013437B617B6923F040037B617B68144A7F
:1048B000934213D13B6923F480633B613B6923F44A
:1048C00000633B613B685B699B003A6913433B6152
:1048D0003B689B699B003A6913433B617B683A697B
:1048E0005A607B68FA689A613B685A687B689A6389
:1048F0007B687A691A6200BF1C37BD4680BC70476E
:10490000002C014080B487B000AF786039607B68CC
:104910001B6A23F480727B681A627B681B6A7B6166
:104920007B685B683B617B68DB69FB60FB6823F04D
:104930007003FB60FB6823F00303FB603B681B68AC
:10494000FA681343FB607B6923F400737B613B6867
:104950009B681B027A6913437B617B681D4A934203
:104960000DD17B6923F400637B613B68DB681B022C
:104970007A6913437B617B6923F480637B617B6885
:10498000144A934213D13B6923F480533B613B6942
:1049900023F400533B613B685B691B013A69134395
:1049A0003B613B689B691B013A6913433B617B6830
:1049B0003A695A607B68FA68DA613B685A687B68D2
:1049C000DA637B687A691A6200BF1C37BD4680BC17
:1049D000704700BF002C014080B487B000AF786002
:1049E00039607B681B6A23F480527B681A627B689B
:1049F0001B6A3B617B685B687B617B68DB69FB6092
:104A0000FB6823F4E043FB60FB6823F44073FB6026
:104A10003B681B681B02FA681343FB603B6923F485
:104A200000533B613B689B681B033A6913433B613E
:104A30007B680F4A934209D17B6923F480437B61F1
:104A40003B685B699B017A6913437B617B687A6988
:104A50005A607B68FA68DA613B685A687B681A6456
:104A60007B683A691A6200BF1C37BD4680BC70473C
:104A7000002C014080B487B000AFF860B9607A6064
:104A8000BB6803F01F03012202FA03F37B61FB689A
:104A90001A6A7B69DB431A40FB681A62FB681A6A70
:104AA000BB6803F01F03796801FA03F31A43FB683C
:104AB0001A6200BF1C37BD4680BC704780B485B009
:104AC00000AF786039607B6893F83C30012B01D1EE
:104AD000022346E07B68012283F83C207B680222A7
:104AE00083F83D207B681B685B68FB607B681B6804
:104AF0009B68BB60FB6823F07003FB603B681B682E
:104B0000FA681343FB607B681B68FA685A607B682D
:104B10001B68164A93420ED07B681B68B3F1804F26
:104B200009D07B681B68124A934204D07B681B68DB
:104B3000104A93420CD1BB6823F08003BB603B68F2
:104B40005B68BA681343BB607B681B68BA689A608D
:104B50007B68012283F83D207B68002283F83C209B
:104B6000002318461437BD4680BC7047002C014016
:104B7000000400400008004080B582B000AF7860BB
:104B80007B68002B01D101233FE07B6893F83D3027
:104B9000DBB2002B06D17B68002283F83C207868CA
:104BA000FCF750FB7B68242283F83D207B681B6860
:104BB000DA687B681B6822F40052DA60786800F0DB
:104BC00029F87B681B681A697B681B6822F490428D
:104BD0001A617B681B685A697B681B6822F02A028D
:104BE0005A617B681B68DA687B681B6842F4005274
:104BF000DA607B6800221A647B68202283F83D20FB
:104C00007B68202283F83E20002318460837BD46E3
:104C100080BD000080B584B000AF78607B681B6801
:104C20001B6923F440517B68DA687B681B680A4380
:104C30001A617B689A687B681B691A437B685B69A9
:104C40001343BB607B681B68DB6823F4B05323F01D
:104C50000C037A681268B9680B43D3607B681B68E1
:104C60005B6923F440717B689A697B681B680A431F
:104C70005A617B681B682C4A934203D1FFF712F8F4
:104C8000F86002E0FEF7FAFFF860FA6813469B004E
:104C900013449A001A447B685B689B00B2FBF3F3F1
:104CA000224AA2FB03235B091901FA6813469B0001
:104CB00013449A001A447B685B689B00B2FBF3F2D2
:104CC0001A4BA3FB02035B09642000FB03F3D31A16
:104CD0001B013233154AA2FB03235B0903F0F003E7
:104CE0001944FA6813469B0013449A001A447B68DF
:104CF0005B689B00B2FBF3F20C4BA3FB02035B0966
:104D0000642000FB03F3D31A1B013233074AA2FBD2
:104D100003235B0903F00F027B681B680A449A6057
:104D200000BF1037BD4680BD003801401F85EB51E4
:104D300084B080B483B000AF786007F1140080E8DD
:104D40000E00002318460C37BD4680BC04B07047E7
:104D500080B485B000AF78604FF43F43FB607B6860
:104D6000B3F840309AB2FB689BB2DB439BB213406E
:104D70009AB27B68A3F84020002318461437BD463A
:104D800080BC704780B483B000AF78600B46FB7086
:104D9000002318460C37BD4680BC704784B080B4F1
:104DA00083B000AF786007F1140080E80E007B68E4
:104DB0000122A3F840207B680022A3F840207B68F2
:104DC0000022A3F844207B680022A3F8502000238F
:104DD00018460C37BD4680BC04B0704780B483B021
:104DE00000AF7860002318460C37BD4680BC704782
:104DF00080B485B000AFEFF30583BB60BB68002BC8
:104E00000FD1EFF310837B607B68002B09D1104B2F
:104E10001B68022B09D1EFF311833B603B68002B29
:104E200003D06FF00503FB600CE0094B1B68002BFF
:104E300005D1074B01221A600023FB6002E04FF00E
:104E4000FF33FB60FB6818461437BD4680BC7047D3
:104E50002806002080B584B000AFEFF30583BB6067
:104E6000BB68002B0FD1EFF310837B607B68002BB6
:104E700009D1114B1B68022B09D1EFF311833B6061
:104E80003B68002B03D06FF00503FB600EE00A4B7C
:104E90001B68012B07D1084B02221A6001F08EF823
:104EA0000023FB6002E04FF0FF33FB60FB68184615
:104EB0001037BD4680BD00BF2806002080B592B0E7
:104EC00004AFF860B9607A6000237B61EFF305837B
:104ED0007B627B6A002B40F09480EFF310833B628F
:104EE0003B6A002B40F08D80484B1B68022B06D19B
:104EF000EFF31183FB61FB69002B40F08280FB68BC
:104F0000002B7ED040233B631823FB620023FB76FB
:104F100007F11B037B634FF0FF33BB627B68002B01
:104F200045D07B681B68002B02D07B681B687B63C5
:104F30007B689B69002B02D07B689B69FB62FB6AE4
:104F4000002B08D0FB6A382B05D87B685B6803F020
:104F50000103002B01D0002354E07B685B69002B28
:104F600003D07B685B699B083B637B689B68002B75
:104F70000ED07B68DB68BB2B0AD97B681B69002BD2
:104F800006D07B685B69002B02D00123BB6210E076
:104F90007B689B68002B0CD17B68DB68002B08D1F9
:104FA0007B681B69002B04D10023BB6201E0002356
:104FB000BB62BB6A012B10D17B681B697A6892685F
:104FC00002920193FB6A0093BB683A6B796BF868B5
:104FD00000F010FE03467B6113E0BB6A002B10D18A
:104FE0003B6B9AB207F114030193FB6A0093BB6811
:104FF000796BF86800F05AFE0346012B01D00023BC
:105000007B617B6918463837BD4680BD2806002085
:1050100080B586B000AF7860EFF305833B613B69F4
:10502000002B0FD1EFF31083FB60FB68002B09D13D
:105030000D4B1B68022B09D1EFF31183BB60BB68DA
:10504000002B03D06FF005037B6107E000237B6139
:105050007B68002B02D0786800F07CFF7B691846E3
:105060001837BD4680BD00BF2806002080B485B03B
:1050700000AFF860B9607A60FB68064A1A60BB68E6
:10508000054A1A607B6840221A6000BF1437BD468B
:1050900080BC70472C060020E806002080B485B054
:1050A00000AFF860B9607A60FB68064A1A60BB68B6
:1050B000054A1A607B6880221A6000BF1437BD461B
:1050C00080BC7047E8070020A408002080B483B0AB
:1050D00000AF78607B6803F108027B685A607B68E8
:1050E0004FF0FF329A607B6803F108027B68DA6058
:1050F0007B6803F108027B681A617B6800221A60F2
:1051000000BF0C37BD4680BC704780B483B000AF91
:1051100078607B6800221A6100BF0C37BD4680BCF6
:10512000704780B485B000AF786039607B685B6899
:10513000FB603B68FA685A60FB689A683B689A6053
:10514000FB689B683A685A60FB683A689A603B68FB
:105150007A681A617B681B685A1C7B681A6000BFFA
:105160001437BD4680BC704780B485B000AF78600E
:1051700039603B681B68BB60BB68B3F1FF3F03D17C
:105180007B681B69FB600CE07B680833FB6002E016
:10519000FB685B68FB60FB685B681B68BA689A42E7
:1051A000F6D2FB685A683B685A603B685B683A68AD
:1051B0009A603B68FA689A60FB683A685A603B6894
:1051C0007A681A617B681B685A1C7B681A6000BF8A
:1051D0001437BD4680BC704780B485B000AF78609E
:1051E0007B681B69FB607B685B687A6892689A6081
:1051F0007B689B687A6852685A60FB685B687A686B
:105200009A4203D17B689A68FB685A607B680022E7
:105210001A61FB681B685A1EFB681A60FB681B68F2
:1052200018461437BD4680BC7047000080B584B076
:1052300000AF786039607B68FB60FB68002B0AD1A7
:105240004FF0500383F31188BFF36F8FBFF34F8F7D
:10525000BB6000BFFEE701F0F9FFFB681A68FB685E
:10526000DB6BF968096C01FB03F31A44FB685A60B5
:10527000FB6800229A63FB681A68FB689A60FB6807
:105280001A68FB68DB6B013BF968096C01FB03F3EF
:105290001A44FB68DA60FB68FF2283F84420FB684D
:1052A000FF2283F845203B68002B14D1FB681B6963
:1052B000002B1AD0FB681033184601F01BF9034687
:1052C000002B12D00C4B4FF080521A60BFF34F8F5F
:1052D000BFF36F8F09E0FB6810331846FFF7F6FE47
:1052E000FB6824331846FFF7F1FE01F0DFFF0123CE
:1052F00018461037BD4680BD04ED00E080B58EB085
:1053000002AFF860B9607A603B60FB68002B0AD19D
:105310004FF0500383F31188BFF36F8FBFF34F8FAC
:10532000BB6200BFFEE73B68002B0AD14FF0500381
:1053300083F31188BFF36F8FBFF34F8F7B6200BF82
:10534000FEE77B68002B02D0BB68002B01D0012355
:1053500000E00023002B0AD14FF0500383F31188A3
:10536000BFF36F8FBFF34F8F3B6200BFFEE77B68D9
:10537000002B02D1BB68002B01D1012300E00023E8
:10538000002B0AD14FF0500383F31188BFF36F8FC6
:10539000BFF34F8FFB6100BFFEE750237B617B694A
:1053A000502B0AD04FF0500383F31188BFF36F8F57
:1053B000BFF34F8FBB6100BFFEE73B68FB62FB6A38
:1053C000002B0DD0FB6A012283F8462097F8382085
:1053D000FB6A009313467A68B968F86800F005F82C
:1053E000FB6A18463037BD4680BD80B584B000AF3B
:1053F000F860B9607A60FB70BB68002B03D1BB69B1
:10540000BA691A6002E0BB697A681A60BB69FA6817
:10541000DA63BB69BA681A640121B869FFF706FF4D
:10542000BB69FA7883F84C2000BF1037BD4680BDB9
:1054300080B58EB000AFF860B9607A603B60002341
:105440007B63FB683B633B6B002B0AD14FF050033F
:1054500083F31188BFF36F8FBFF34F8FBB6200BF21
:10546000FEE7BB68002B03D13B6B1B6C002B01D10B
:10547000012300E00023002B0AD14FF0500383F3F7
:105480001188BFF36F8FBFF34F8F7B6200BFFEE7C2
:105490003B68022B03D13B6BDB6B012B01D101235A
:1054A00000E00023002B0AD14FF0500383F3118852
:1054B000BFF36F8FBFF34F8F3B6200BFFEE701F07A
:1054C000DFF90346002B02D17B68002B01D10123B9
:1054D00000E00023002B0AD14FF0500383F3118822
:1054E000BFF36F8FBFF34F8FFB6100BFFEE701F08B
:1054F000ADFE3B6B9A6B3B6BDB6B9A4202D33B6816
:10550000022B29D13A68B968386B00F007FAF862C3
:105510003B6B5B6A002B10D03B6B2433184600F0CA
:10552000E9FF0346002B13D03F4B4FF080521A6027
:10553000BFF34F8FBFF36F8F0AE0FB6A002B07D0DA
:10554000394B4FF080521A60BFF34F8FBFF36F8F0C
:1055500001F0ACFE012363E07B68002B03D101F076
:10556000A5FE00235CE07B6B002B06D107F1140342
:10557000184601F023F801237B6301F097FE00F049
:105580008DFD01F063FE3B6B93F844305BB2B3F1E9
:10559000FF3F03D13B6B002283F844203B6B93F821
:1055A00045305BB2B3F1FF3F03D13B6B002283F880
:1055B000452001F07BFE3A1D07F114031146184601
:1055C00001F012F80346002B24D1386B00F09EFA4C
:1055D0000346002B18D03B6B10337A6811461846EF
:1055E00000F038FF386B00F029FA00F065FD034643
:1055F000002B7FF47CAF0C4B4FF080521A60BFF34E
:105600004F8FBFF36F8F72E7386B00F017FA00F01F
:1056100053FD6CE7386B00F011FA00F04DFD0023EC
:1056200018463837BD4680BD04ED00E080B58EB029
:1056300000AFF860B9607A603B60FB683B633B6B2E
:10564000002B0AD14FF0500383F31188BFF36F8F03
:10565000BFF34F8F7B6200BFFEE7BB68002B03D117
:105660003B6B1B6C002B01D1012300E00023002BBE
:105670000AD14FF0500383F31188BFF36F8FBFF34C
:105680004F8F3B6200BFFEE73B68022B03D13B6BB1
:10569000DB6B012B01D1012300E00023002B0AD199
:1056A0004FF0500383F31188BFF36F8FBFF34F8F19
:1056B000FB6100BFFEE701F08BFEEFF311824FF0BC
:1056C000500383F31188BFF36F8FBFF34F8FBA611D
:1056D0007B61BB69FB623B6B9A6B3B6BDB6B9A42FA
:1056E00002D33B68022B2CD13B6B93F8453087F8F3
:1056F0002B303A68B968386B00F010F997F92B3005
:10570000B3F1FF3F12D13B6B5B6A002B16D03B6BB2
:105710002433184600F0EEFE0346002B0ED07B68C3
:10572000002B0BD07B6801221A6007E097F82B3022
:105730000133DBB25AB23B6B83F8452001237B6314
:1057400001E000237B63FB6A3B613B6983F31188C3
:1057500000BF7B6B18463837BD4680BD80B58CB026
:1057600000AFF860B9607A600023FB62FB68BB623F
:10577000BB6A002B0AD14FF0500383F31188BFF3AB
:105780006F8FBFF34F8F3B6200BFFEE7BB68002BFC
:1057900003D1BB6A1B6C002B01D1012300E0002365
:1057A000002B0AD14FF0500383F31188BFF36F8FA2
:1057B000BFF34F8FFB6100BFFEE701F061F80346C6
:1057C000002B02D17B68002B01D1012300E00023D4
:1057D000002B0AD14FF0500383F31188BFF36F8F72
:1057E000BFF34F8FBB6100BFFEE701F02FFDBB6A27
:1057F0009B6B7B627B6A002B1FD0B968B86A00F094
:10580000F7F87B6A5A1EBB6A9A63BB6A1B69002B56
:105810000FD0BB6A1033184600F06CFE0346002B15
:1058200007D03D4B4FF080521A60BFF34F8FBFF34C
:105830006F8F01F03BFD012369E07B68002B03D1F2
:1058400001F034FD002362E0FB6A002B06D107F172
:105850001003184600F0B2FE0123FB6201F026FDA2
:1058600000F01CFC01F0F2FCBB6A93F844305BB220
:10587000B3F1FF3F03D1BB6A002283F84420BB6A27
:1058800093F845305BB2B3F1FF3F03D1BB6A00220E
:1058900083F8452001F00AFD3A1D07F11003114677
:1058A000184600F0A1FE0346002B23D1B86A00F091
:1058B00017F90346002B17D0BB6A24337A681146C8
:1058C000184600F0C7FDB86A00F0B8F800F0F4FB25
:1058D0000346002B89D1104B4FF080521A60BFF362
:1058E0004F8FBFF36F8F80E7B86A00F0A7F800F022
:1058F000E3FB7AE7B86A00F0A1F800F0DDFBB86AD4
:1059000000F0EEF80346002B3FF46FAF002318467B
:105910003037BD4680BD00BF04ED00E080B586B0E5
:1059200000AFF860B9607A6000237B61FB689B6B15
:105930003B61FB681B6C002B0DD1FB681B68002BC7
:105940004DD1FB685B68184600F0B8FF7861FB68D2
:1059500000225A6043E07B68002B19D1FB689868ED
:10596000FB681B6C1A46B96802F07CF8FB689A6801
:10597000FB681B6C1A44FB689A60FB689A68FB68BA
:105980005B689A422BD3FB681A68FB689A6026E032
:10599000FB68D868FB681B6C1A46B96802F062F8AD
:1059A000FB68DA68FB681B6C5B421A44FB68DA60D0
:1059B000FB68DA68FB681B689A4207D2FB685A6882
:1059C000FB681B6C5B421A44FB68DA607B68022B45
:1059D00005D13B69002B02D03B69013B3B613B6930
:1059E0005A1CFB689A637B6918461837BD4680BD10
:1059F00080B582B000AF786039607B681B6C002B8B
:105A000018D07B68DA687B681B6C1A447B68DA60A4
:105A10007B68DA687B685B689A4203D37B681A68A4
:105A20007B68DA607B68D9687B681B6C1A463868CB
:105A300002F018F800BF0837BD4680BD80B584B0BD
:105A400000AF786001F002FC7B6893F84530FB738F
:105A500011E07B685B6A002B12D07B682433184608
:105A600000F048FD0346002B01D000F01FFEFB7B39
:105A7000013BDBB2FB7397F90F30002BE9DC00E050
:105A800000BF7B68FF2283F8452001F00FFC01F086
:105A9000DDFB7B6893F84430BB7311E07B681B69C6
:105AA000002B12D07B681033184600F023FD03460C
:105AB000002B01D000F0FAFDBB7B013BDBB2BB73D6
:105AC00097F90E30002BE9DC00E000BF7B68FF2275
:105AD00083F8442001F0EAFB00BF1037BD4680BDCB
